:020000040800F2
:1000000040050020AD0100086B1E0008811A0008A1
:10001000691E00085B0700080924000800000000B2
:100020000000000000000000000000006F1E00083B
:100030005D070008000000006D1E0008711E00082A
:10004000C7010008C7010008C7010008C701000870
:10005000C7010008C7010008C7010008C701000860
:10006000C7010008C7010008C7010008C701000850
:10007000C7010008C7010008C7010008C701000840
:10008000C7010008C7010008C70100080000000000
:10009000000000000000000000000000C701000890
:1000A000C7010008C7010008C7010008C701000810
:1000B000C7010008C7010008C7010008C701000800
:1000C000C7010008C7010008C7010008C7010008F0
:1000D000C7010008C7010008C701000800000000B0
:1000E000C7010008C7010008C701000800000000A0
:1000F000000000000000000000000000C701000830
:1001000000000000C7010008C7010008C70100087F
:1001100000000000000000000000000000000000DF
:10012000C7010008C7010008C7010008C70100088F
:10013000C7010008000000000000000000000000EF
:10014000000000000000000000000000C7010008DF
:10015000C7010008C7010008C7010008FD23000807
:10016000C7010008C70100080000000000000000EF
:10017000000000000000000000000000000000007F
:1001800000000000C701000800000000000000009F
:10019000C7010008C7010008DFF80CD000F05CFAC6
:1001A00000480047752D000840050020064880479C
:1001B00006480047FEE7FEE7FEE7FEE7FEE7FEE74C
:1001C000FEE7FEE7FEE7FEE7051F000899010008CD
:1001D0002DE9F05F0546002092469B46884606467C
:1001E000814640241BE0284641464746224600F00F
:1001F0006AF853465A46C01A914110D31146184620
:10020000224600F051F82D1A67EB01084F462246AE
:100210000120002100F048F817EB00094E41201E94
:10022000A4F10104DFDC484631462A464346BDE8D6
:10023000F09FD2B201E000F8012B491EFBD27047BB
:100240000022F6E710B513460A4604461946FFF7A2
:10025000F0FF204610BD00F0004230F000400AD010
:10026000C10D01F56071C0F3160042EA0151C208E8
:1002700040071143704700200146704730B50B46D8
:10028000014600202022012409E021FA02F59D42C6
:1002900005D303FA02F5491B04FA02F52844151E9A
:1002A000A2F10102F1DC30BD202A04DB203A00FA81
:1002B00002F1002070479140C2F1200320FA03F3BD
:1002C000194390407047202A04DB203A21FA02F0BB
:1002D0000021704721FA02F3D040C2F12002914080
:1002E0000843194670472DE9FE4F804681EA030016
:1002F000C00F0C46009021F0004123F00045B8EB00
:100300000200A94105D24046214690461C460B46B4
:10031000024623F00040104347D0270DC7F30A00E0
:10032000C3F30A510290401A019040286BDAC3F3DC
:10033000130040F4801B0098924620B10023D2EBBA
:10034000030A63EB0B0B01985946C0F1400250467B
:10035000FFF7AAFF06460D4650465946019A00F09F
:100360008DF910EB08006141002487EA115284EAFC
:10037000E7731A4340D0009A62B3019A012A4FEA08
:10038000075215DC001B61EB02014FF0004202EA4C
:100390000752CDE90042001C41F5801132462B4640
:1003A00000F08DF903B0BDE8F08F40462146F9E733
:1003B000001B61EB0201001C41F5801300185B413A
:1003C0002018A2F5001747EB030140EAD570B619D3
:1003D0006D4111E06D084FEA360645EAC0754FEAF7
:1003E0000752001B61EB0201001C41F58011490816
:1003F0004FEA30000019514132462B4603B0BDE8A8
:10040000F04F00F04DB90098012240000023D0EBDE
:10041000020263EBE073009821464FEAE074B8EB08
:10042000000061EB0401E9E783F000435BE781F042
:10043000004158E72DE9FE4F81EA030404F000442F
:1004400021F0004100944FF0000B23F0004350EAEC
:1004500001045ED052EA03045BD0C3F30A54C1F333
:100460000A552C44A4F2F3340194A0FB0254C1F3C6
:10047000130141F48011C3F3130343F4801301FB10
:10048000024400FB034E840A970A44EA815447EA77
:100490008357A4FB076802958D0A05FB07854FEA81
:1004A000932C04FB0C542705029D4FEA065847EA9B
:1004B0001637B5EB08056EEB070C870E920E47EA70
:1004C000811742EA8312A7FB0201B6EB0B0164EB32
:1004D00000042B0D43EA0C335E1844EB1C50DA4643
:1004E0005146E7FB0201C5F313044FEA0B3343EA1D
:1004F00014534FEA0432019C43EA0603A4F10C04AE
:100500000294009CCDE900B400F0D9F803B0BDE836
:10051000F08F00200146F9E72DE9F04D81EA030450
:1005200004F0004B21F0004514464FF0000A23F080
:10053000004150EA050220D054EA01021DD0C5F363
:100540000A570246C5F31303C1F31300C1F30A5659
:1005500040F4801543F48013A7EB0608101BD64621
:1005600008F2FD3873EB050002D308F1010801E041
:1005700092185B41B8F1000F03DA00200146BDE894
:10058000F08D00204FF48011064684460EE0171BC4
:1005900073EB050705D3121B63EB050306434CEA17
:1005A000010C49084FEA300092185B4150EA0107FC
:1005B000EDD152EA030012D082EA040083EA050179
:1005C000084305D0101BAB4106D20122002306E0F0
:1005D00000224FF0004302E06FF0010253101AEBCB
:1005E00006004CEB085110EB0A0041EB0B01BDE893
:1005F000F04D00F055B8C1F30A52C1F3130140F2B7
:10060000FF3341F480119A4202DA0020014670471C
:1006100040F233439A42A2F2334202DC5242FFF7E5
:1006200052BEFFF741BE000030B5041E71F1000458
:1006300004DB4FF00044404264EB0101141E73F1EF
:10064000000405DB1C464FF00043524263EB0403F9
:10065000994208BF904230BD064C074D06E0E06865
:1006600040F0010394E8070098471034AC42F6D3F9
:10067000FFF796FD042E0008242E0008202A06DB32
:10068000CB17203A41FA02F043EAE07306E041FA60
:1006900002F3D040C2F1200291400843194670474E
:1006A00010B5141E73F1000408DA401C41F100017A
:1006B00092185B411A4301D120F0010010BD2DE9D1
:1006C000F04D92469B4611B1B1FA81F202E0B0FAC8
:1006D00080F220329046FFF7E7FD04460F4640EADD
:1006E0000A0041EA0B0153465A46084313D011460B
:1006F00053EA010019D0C8F140025046FFF7E3FD6C
:1007000005460E46504659464246FFF7CDFD084382
:1007100005D0012004E020463946BDE8F08D0020D8
:10072000054346EAE0762C4337430A986305E40A1A
:10073000A0EB08000022FD0A44EA47540A3002D523
:1007400000200146E9E7010510196941DDE9084586
:1007500000196941BDE8F04DA2E7FEE7704772B6A7
:10076000FEE72DE9F0410446876D00F065F9064685
:1007700094F835000025022806D08020606584F8B2
:1007800034500120BDE8F0812068016821F0160195
:1007900001602068416921F080014161206C08B945
:1007A000A06C20B12068016821F008010160206878
:1007B000016821F0010101600CE000F03DF9801BAF
:1007C000052807D920206065032084F8350084F8C7
:1007D0003450D7E720680068C007EED194F85C1069
:1007E0003F208840B860012084F8350084F83450F8
:1007F0000020C7E790F83510022903D08021416519
:1008000001207047052180F835100068016821F04B
:10081000010101600020704770B5044600F00CF93A
:100820000546601C02D004480078044400F004F936
:10083000401BA042FAD370BD000000202DE9F84F04
:10084000DFF8B8A10022012403254FF00F090AF1B7
:10085000040BAAF1040E00BF0B6804FA02F6334041
:10086000B34273D10F7907F00307012F01D0022F94
:1008700016D187684FEA420805FA08FC27EA0C07F8
:10088000D1F80CC00CFA08FC4CEA070CC0F808C000
:100890004768B7430E79C6F3001696403E4346605C
:1008A0000E79F643B6070DD0C768560005FA06FC68
:1008B00027EA0C07D1F808C00CFA06FC4CEA070C32
:1008C000C0F80CC00E7906F00306022E10D1D6082F
:1008D00000EB8608D8F8206057074FEAD76C09FA72
:1008E0000CF7BE430F6907FA0CF73743C8F82070BE
:1008F00006684FEA420C05FA0CF7BE430F7907F081
:10090000030707FA0CF7374307604E6816F4403FB9
:100910006DD03B4E376847F480473760366822F029
:10092000030706F480460096364E07EB060CDCF80B
:10093000086897073F0F09FA07F826EA0806DFF864
:10094000C880404503D14FF000081EE04FE0DFF8BB
:10095000BC80404502D14FF0010816E0DFF8B080BE
:10096000404502D14FF002080FE0DFF8A880404573
:1009700002D14FF0030808E0DFF89C80404502D127
:100980004FF0040801E04FF0070808FA07F848EABA
:100990000608CCF80888DAF800605746D1F804C099
:1009A0009E435FEACC2C00D51E433E60DBF800601E
:1009B0005F46D1F804C09E435FEA8C2C00D51E43ED
:1009C0003E60DEF800607746D1F804C09E435FEADF
:1009D0008C3C00D51E433E60084F083F3E68D1F86E
:1009E00004C09E435FEACC3C00D51E433E60521CCF
:1009F000102AFFF431AFBDE8F88F0000083C014039
:100A0000443802400030014000000240000402402F
:100A100000080240000C024000100240426921EA36
:100A200002030A4043EA0241816170470AB18161D1
:100A300070470904FBE70000014880687047000028
:100A400000000020024881680278114481607047EC
:100A5000000000200B4810B5016841F400710160EE
:100A6000016841F480610160016841F480710160B6
:100A7000032000F06FF80F2000F006F800F024F8D3
:100A8000002010BD003C024070B50D4D04464FF4EF
:100A90007A712878B1FBF0F00A490968B1FBF0F0EF
:100AA00000F0B2FB48B9102C07D200222146501E9C
:100AB00000F030F800206C6070BD012070BD0000B7
:100AC000000000200C0000200A4808B5016841F42D
:100AD00080410160006800F4804000900548001FDC
:100AE000016841F080510160006800F08050009082
:100AF00008BD000044380240002809DB00F01F0256
:100B0000012191404009800000F1E020C0F800116F
:100B100070470000F0B40E4B1B680C46C3F3022371
:100B2000C3F10705042D00D90425191D072901D299
:100B3000002300E0DB1E012606FA05F1491E2140D4
:100B400099409E40761E16403143F0BC01F06EBCC9
:100B50000CED00E0064900F0070208684FF6FF03BD
:100B6000184040EA0220034A104308607047000022
:100B70000CED00E00000FA052DE9F0470E460500F7
:100B800065D0DFF81481D8F80000F7B200F0070054
:100B9000B04207D288F80070D8F8000000F00700D3
:100BA000B04254D128683D4C810712D5400703D587
:100BB000206840F4E05020602878000703D52068C2
:100BC00040F4604020602068A96820F0F0000843ED
:100BD00020602878C0072DD030496868083901287E
:100BE00012D0022813D0032811D0096889070029E0
:100BF0002DDA216821F0030101432160FFF71CFF7A
:100C0000814641F2883A0EE009688903EFE70968F6
:100C10008901ECE7FFF710FFA0EB0901514502D96C
:100C20000320BDE8F0872068696800F00C00B0EB95
:100C3000810FEFD1D8F80010404601F00701B14212
:100C400007D90770006800F00700B04201D001200A
:100C5000E7E72878400705D52068E96820F4E050E8
:100C6000084320602878000706D52068296920F409
:100C7000604040EAC100206000F038F82168084A6E
:100C8000C1F30311515CC84006490860064800687A
:100C9000FFF7FAFE0020C4E7003C0240083802409B
:100CA000EC2D00080C000020040000200448054939
:100CB00000680968044AC1F38221515CC84070474A
:100CC0000C00002008380240FC2D000804480549AB
:100CD00000680968044AC1F34231515CC84070475A
:100CE0000C00002008380240FC2D0008154810B503
:100CF000006810F00C02144813D01449042A0FD0D5
:100D0000082A0ED10F4C241F2268236802F03F02EC
:100D10005B0207D52068C0F38810A0FB010106E044
:100D2000084610BD2168C1F38811A1FB0001002312
:100D3000FFF74EFA2168C1F30141491C4900B0FB9D
:100D4000F1F010BD083802400024F40040787D0125
:100D50002DE9F84F04006ED02078DFF84C93C007DF
:100D6000A9F104054AD009F104000168C1F3810129
:100D7000012908D00068C0F3810002280AD1D9F8FF
:100D80000000400206D52868800337D56068002837
:100D9000E1D033E06068B0F5803F10D0B0F5A02F0F
:100DA000286810D020F480302860286820F4802043
:100DB00028606068A8B1FFF73FFE06460DE028688E
:100DC00040F48030F4E740F480202860F7E700BF6B
:100DD000FFF732FE801B642873D828688003F7D59C
:100DE0000CE0FFF729FE064605E000BFFFF724FEF2
:100DF000801B6428F0D828688003F7D42078DFF8B7
:100E0000AC8280074FF0000A3ED5A748001D01685C
:100E100011F00C0F08D00068C0F3810002280BD13C
:100E2000D9F80000400207D42868800716D5E0688A
:100E3000012800D112E033E1E068B8B10120C8F820
:100E40000000FFF7F9FD064605E000BFFFF7F4FDDF
:100E5000801B0228C0D828688007F7D52868216938
:100E600020F0F80040EAC10028600DE0C8F800A0BA
:100E7000FFF7E2FD064604E0FFF7DEFD801B0228D7
:100E80001FD828688007F7D42078000722D5864F1E
:100E900087486169703771B101210160FFF7CCFDAE
:100EA000064604E0FFF7C8FD801B022809D8386811
:100EB0008007F7D50EE0C0F800A0FFF7BDFD06469D
:100EC00005E082E0FFF7B8FD801B02287DD8386876
:100ED0008007F7D42078400768D5DFF8CCB1002729
:100EE0000BF13C0BDBF80000C0000BD4DBF800106A
:100EF00041F08051CBF80010DBF80000012700F032
:100F0000805000906B4E3068C00510D4306840F4BB
:100F100080703060FFF790FD009005E0FFF78CFDDA
:100F20000099401A022850D83068C005F6D55E4EA8
:100F3000A0686C3601280FD00528306810D020F04A
:100F400001003060306820F004003060A068B8B163
:100F5000FFF772FD00900FE0306840F00100F4E709
:100F600040F004003060F7E7FFF766FD0099411A92
:100F700041F28830814266D830688007F4D50EE0AF
:100F8000FFF75AFD009007E0FFF756FD0099411A60
:100F900041F28830814256D830688007F4D42FB1AE
:100FA000DBF8001021F08051CBF80010A069C8B325
:100FB0003D49091D0968C1F3810102294AD002286F
:100FC000504607D0C8F8600000E03CE0FFF734FD71
:100FD00004463BE04746C8F86000FFF72DFD064693
:100FE00005E000BFFFF728FD801B02282BD82868EA
:100FF0008001F7D4D4E907010843A16A2E4A4908C1
:1010000002EB0141626A41EA8211084394F82C1014
:1010100040EA0161C9F8001001203866FFF70CFDB5
:10102000044606E03EE000BFFFF706FD001B022875
:1010300009D828688001F7D534E000BFFFF7FCFC31
:10104000001B022802D90320BDE8F88F2868800120
:10105000F4D427E00128F7D0D9F80000E26900F4C1
:10106000800191421CD1226A00F03F01914217D1C8
:1010700047F6C071626A0140B1EB821F10D1A26ACB
:101080004FF0FF3300F4403103EB5202B1EB024F5B
:1010900006D194F82C1000F07060B0EB016F01D015
:1010A0000120D1E70020CFE704380240000047428A
:1010B000800E4742007000400000FFFF70B5040042
:1010C00009D0606A002540B125616561A56294F888
:1010D000510040B10CE0012070BD6068B0F5827F26
:1010E000F4D0E561F2E784F85050204600F044F86F
:1010F000022084F851002068016821F0400101605D
:10110000A088218900F4827001F404410843A18978
:1011100001F400610843217C01F002010843217DB4
:1011200001F001010843218B01F400710843217F84
:1011300001F03801084394F8201001F080010843C1
:10114000218D01F40051084321680860A069042141
:1011500001EA104094F8241001F0100108432168BE
:1011600048602068C16921F40061C16165650120A2
:1011700084F85100002070BDF0B587B004461421FA
:101180006846FFF75DF81C492068884232D11B4849
:101190000024016841F480510160006800F480502F
:1011A000059016481438016841F00101016001689A
:1011B00001F001010591016841F002010160006840
:1011C000022500F002000590C020CDE9000502AA2A
:1011D0000326052782E8D00069460948FFF72EFB61
:1011E0000820CDE9000502AA694682E8D00005483A
:1011F000FFF724FB07B0F0BD003001404438024047
:10120000000002400004024010B5401EB0F1807F93
:1012100001D3012010BD4FF0E02460610F21601761
:1012200001F004F90020A06107202061002010BD1A
:1012300070B590F83C20012A2CD0012480F83C4065
:10124000022280F83D2003685A689D6822F07006EB
:101250000A6832435A60104B02689A420ED0B2F1CB
:10126000804F0BD00D4B9A4208D00D4B9A4205D0BF
:101270000C4B9A4202D00C4B9A4204D1496825F09B
:1012800080031943916080F83D40002180F83C10B4
:10129000084670BD022070BD0000014000040040FF
:1012A00000080040000C00400040014010B5040060
:1012B00003D094F83D0010B107E0012010BD0020DC
:1012C00084F83C00204600F01FF8022084F83D001E
:1012D000211D206800F01EFE012084F8460084F8DD
:1012E0003E0084F83F0084F8400084F8410084F810
:1012F000420084F8430084F8440084F8450084F8F0
:101300003D00002010BD000008B50068B0F1804F1E
:1013100008D10548016841F001010160006800F052
:101320000100009008BD00004038024070B504463E
:1013300090F83C000025012817D0012684F83C6075
:10134000022084F83D002068826822F0770222F4AF
:101350007F4282600868502838D00DDC20284FD0AA
:1013600005DC90B3102811D14AE0022070BD30286E
:1013700046D040280AD13BE060282FD070280DD0FD
:10138000B0F5805F03D0B0F5005F12D0012584F87E
:101390003D60002084F83C00284670BDCB68D1E950
:1013A0000121206800F002FE2068816841F0770189
:1013B00009E0CB68D1E90121206800F0F7FD206841
:1013C000816841F480418160E1E719E0CA684968B9
:1013D000206800F09FFE5021206806E0CA68496836
:1013E000206800F0A8FE6021206800F0E9FDCEE74B
:1013F000CA684968206800F08DFE40212068F4E743
:10140000226801461046F0E710B586B00446142164
:101410006846FEF715FF2068B0F1804F15D10C48E3
:101420000021026842F001020260006800F0010041
:1014300005902E2000900220CDE901010120CDE988
:10144000031069460348FFF7F9F906B010BD000024
:10145000303802400000024070B5044690F83C006D
:1014600000260D4601280FD0012084F83C006AB107
:10147000042A1DD0082A2FD00C2A3FD00126002094
:1014800084F83C00304670BD022070BD206800F03A
:101490009FFD2068816941F00801816120688169B0
:1014A00021F004018161206881692A69114311E0FA
:1014B000206800F0B5FD2068816941F40061816118
:1014C0002068816921F480618161206881692A69CD
:1014D00041EA02218161D2E7206800F0CDFD206859
:1014E000C16941F00801C1612068C16921F00401AE
:1014F000C1612068C1692A69114311E0206800F0C8
:10150000E7FD2068C16941F40061C1612068C169DB
:1015100021F48061C1612068C1692A6941EA022120
:10152000C161ACE710B5040003D094F83D0010B1E0
:1015300007E0012010BD002084F83C00204600F0A8
:101540001EF8022084F83D00211D206800F0E2FC16
:10155000012084F8460084F83E0084F83F0084F8B7
:10156000400084F8410084F8420084F8430084F885
:10157000440084F8450084F83D00002010BD704709
:1015800070477047F8B5016804460868CA684B6937
:1015900010F00F0F4FF000055AD003F0010602F4CF
:1015A0009077374365D0C10705D0D10503D5216CAD
:1015B00041F001012164410705D5D90703D0216C11
:1015C00041F002012164810705D5D90703D0216CC0
:1015D00041F004012164010707D502F020013143E5
:1015E00003D0216C41F008012164216C00293BD01B
:1015F000800604D5900602D5204600F0DDFD206867
:101600004069216CC0F3801001F0080101432046BD
:101610002BD000F0AAFD20684069400621D5206843
:10162000143050E8001F21F0400140E80012002A69
:10163000F5D1A06BA8B16C490165A06BFFF7DAF892
:10164000002811D0A06B016D01B0BDE8F040084743
:1016500083060ED593060CD52046BDE8F84000F071
:10166000ABBD2046FFF78DFFF8BDFFF78AFF25646D
:10167000F8BD266B2023012E79D1C60677D5D60674
:1016800075D50868486800904869400640D5A16B48
:10169000086840680004000CEAD0A28D8242E7D9B5
:1016A000E085C869B0F5807F2DD020680C3050E807
:1016B000001F21F4807140E80012002AF5D1206853
:1016C000143050E8001F21F0010140E80012002A08
:1016D000F5D12068143050E8001F21F0400140E8A7
:1016E0000012002AF5D184F83E30256320680C30C2
:1016F00050E8001F21F0100140E80012002AF5D147
:10170000A06BFFF72EF8A08DE18D401A81B229E081
:10171000A08DE18D401A81B2E08D0028A8D000296B
:10172000A6D020680C3050E8002F22F4907240E8D8
:101730000026002EF5D12068143050E8002F22F04A
:10174000010240E80026002EF5D184F83E302563E2
:1017500020680C3050E8002F22F0100240E80023EF
:10176000002BF5D12046FFF70BFFF8BDFFE705067C
:101770002BD5150629D594F83D002128F5D1A06870
:10178000B0F5805F01D12069B0B1206A411C2162AF
:10179000216800784860E08C401E0004000CE08462
:1017A000E3D12068C16821F08001C1602068C16870
:1017B00041F04001C160D8E7206A0088C0F308000A
:1017C0004860206A801C2062E5E74006CDD55006BF
:1017D000CBD5CA68204622F04002CA6084F83D306A
:1017E00000F04DF9C1E700005B21000870B504006E
:1017F00004D094F83D00002510B106E0012070BD32
:1018000084F83C50204600F023F8242084F83D0062
:101810002068C16821F40051C160204600F02CFD11
:101820002068016921F4904101612068416921F03B
:101830002A0141612068C16841F40051C1602564FA
:10184000202084F83D0084F83E00002070BD000098
:10185000F0B587B0044614216846FEF7F1FC27492D
:10186000254F26680025254A1439022303242448DD
:10187000BE421AD1166846F010061660126802F0D1
:10188000100205920A6842F001020A60096801F03C
:101890000101059161028DE82A000721CDE903418C
:1018A0006946FEF7CBFF07B0F0BD164FBE42FAD136
:1018B000166846F020061660126802F020020592B3
:1018C0000A6842F001020A60096801F0010105910D
:1018D0004FF4C0518DE82A000821CDE90341694643
:1018E000FEF7ACFF002211464720FFF713F947200F
:1018F000FFF702F9D7E7000000100140443802402A
:1019000000000240001401402DE9F84F044690F811
:101910003E009A4616460D46202853D1FDB1F6B139
:1019200094F83C0001284DD0012084F83C000027A9
:101930002764222084F83E002763FFF77DF8A68500
:101940008146E685A0684FF48058404501D1206962
:1019500040B12E465FF0000584F83C7027E001207E
:10196000BDE8F88F0026F7E74B46002220212046ED
:10197000CDF800A000F006FD08B10320F0E726B185
:10198000A06840451BD038B108E020684068C0F32B
:10199000080025F8020B07E0206980B12068406844
:1019A00000F07F0006F8010BE08D401EE085E08D21
:1019B0000028D9D1202084F83E000020D0E72068FC
:1019C0004068EFE70220CBE7704700002DE9F843BD
:1019D000044690F83D001F4616460D4620284CD17F
:1019E000C5B1BEB194F83C00012846D0012084F86E
:1019F0003C004FF00008C4F84080212084F83D00EE
:101A0000FFF71AF8A6848146E684A068B0F5805FE7
:101A100003D004E00120BDE8F883206928B12E46F8
:101A20005FF0000584F83C800EE00026FAE7802194
:101A3000204600F0A7FCA0B9AEB116F8010B216852
:101A40004860E08C401EE084E08C4B464FF0000282
:101A500000970028EBD14FF04001204600F092FCA7
:101A600030B10320D7E735F8020BC0F30800E6E7F2
:101A7000202084F83D000020CDE70220CBE770470E
:101A8000FEE7000010B586B00446002000900190EB
:101A90000290F5208DF80000E2208DF801008DF80D
:101AA0000220100A8DF80300000A8DF80400000AD5
:101AB0008DF805000621684601F032F98DF8060020
:101AC000000A8DF80700000A8DF80800000A8DF85A
:101AD000090064230A2269460A48FFF777FF4FF49A
:101AE000FA630C2203A90748FFF70EFF082103A899
:101AF00001F016F99DF81310049861F31F606060FF
:101B000006B010BDF800002010B58AB004460020D1
:101B1000009001900290F5208DF80000E0208DF8F3
:101B200001008DF802100621684601F0F9F88DF8E1
:101B30000600000A8DF80700000A8DF80800000A68
:101B40008DF8090064230A2269461348FFF73EFF17
:101B50004FF4FA63182203A90F48FFF7D5FE1421AA
:101B600003A801F0DDF8BDF81000DFED0C0A00EE6F
:101B7000100A2081B8EE400A80EE201A84ED051A82
:101B8000BDF812006081BDF81400A081BDF81600F8
:101B9000E0810AB010BD0000F800002000007A4487
:101BA0000EB50021009101910291F5218DF80010F0
:101BB000E1218DF801108DF802000621684601F040
:101BC000AFF88DF80600000A8DF80700000A8DF8BE
:101BD0000800000A8DF8090064230A2269460248B9
:101BE000FFF7F4FE0EBD0000F800002030B587B00E
:101BF00004460020009001900290F5208DF800002E
:101C000043208DF801000621684601F089F88DF81F
:101C10000600000A8DF80700000A8DF80800000A87
:101C20008DF8090064230A2269460E48FFF7CEFEAC
:101C30004FF4FA630C2203A90A48FFF765FE9DF8EA
:101C40001700059D082160F31F6503A801F068F8DF
:101C5000A84205D19DF81310049861F31F6020601D
:101C600007B030BDF800002070B586B0142168467A
:101C7000FEF7E6FA19480025016841F00401016009
:101C8000016801F004010591016841F080010160E3
:101C9000016801F080010591016841F001010160D6
:101CA000016801F001010591016841F00201016044
:101CB0000068012200F00200094E540305902146FD
:101CC0003046FEF7B3FE0121CDE90041CDE9021512
:101CD00069463046FEF7B2FD06B070BD30380240AE
:101CE00000080240114810B50F4901604FF482719D
:101CF000416000214FF40062C0E902120122C0E9F4
:101D00000412520282611822C0E9072141628162F5
:101D10000A21C162FFF7D2F9002803D0BDE81040C4
:101D2000FEF71DBD10BD0000003001401400002072
:101D300010B58EB000240794089409940A940B946B
:101D40001C2168460C94FEF77BFA2A484FF080412C
:101D500001606321C0E9011444F61F61C0E9031466
:101D600080218161FFF7A2FA08B1FEF7F8FC4FF479
:101D70008050079007A91F48FFF7D8FA08B1FEF76F
:101D8000EEFC1C48FFF7CEFB08B1FEF7E8FC0B9415
:101D90000BA918480C94FFF74BFA08B1FEF7DFFCCB
:101DA0006020CDE9000402940022694611480494A1
:101DB000FFF752FB08B1FEF7D2FC042269460D483A
:101DC000FFF74AFB08B1FEF7CAFC0822694609483A
:101DD000FFF742FB08B1FEF7C2FC0C22694605483A
:101DE000FFF73AFB08B1FEF7BAFC0248FFF70CFB1D
:101DF0000EB010BD6C0000200C4810B50A490160FF
:101E00004FF4E1314160002181600C22C160C0E9E2
:101E100004128161C161FFF7E9FC002803D0BDE82D
:101E20001040FEF79CBC10BD00100140B400002023
:101E30000C4810B50A4901604FF4E13141600021BE
:101E400081600C22C160C0E904128161C161FFF7A9
:101E5000CDFC002803D0BDE81040FEF780BC10BDCB
:101E600000140140F8000020FEE7FEE770477047CD
:101E7000FEF7E8BD30B593B030216846FEF7E0F9D3
:101E800014210CA8FEF7DCF91C480025016841F07C
:101E900080510160006800F080501190184801687E
:101EA00041F4404101600068022400F44040119078
:101EB00001200090000401908001CDE906400C2033
:101EC00008906020CDE9090404200B906846FEF7D5
:101ED0003FFF08B172B6FEE70CA90F2081E8310080
:101EE0004FF48050CDE90F0503210CA8FEF744FE06
:101EF000002801D072B6FEE713B030BD4038024072
:101F0000007000400248016841F4700101607047B0
:101F100088ED00E0F0B502681D4B1E4C9F031E4D7E
:101F20001E4E984207D0B84205D0A04203D0A84226
:101F300001D0B04204D122F0700C4A6842EA0C028F
:101F4000984210D0B8420ED0A0420CD0A8420AD07D
:101F5000B04208D0124CA04205D0124CA04202D090
:101F6000114CA04203D122F44074CA6822434C6948
:101F700022F08002224302608A68C2620A6882629A
:101F8000984201D10969016301214161F0BD00005E
:101F9000000001400004004000080040000C004028
:101FA00000400140004401400048014010B58468F1
:101FB00042EA032224F47F440A432243826010BD94
:101FC000826822F070020A4342F007018160704784
:101FD00030B5026A22F001020262026A4368846933
:101FE00024F073050C682C4322F002058A682A430A
:101FF0000A4DA8420BD122F00805CA6823F44073A9
:102000002A434D6922F004021D438B692B43436030
:10201000846149684163026230BD000000000140F4
:1020200030B5026A22F010020262026A43688469D3
:102030000D6824F4E64444EA05248D6822F0200269
:1020400042EA05120B4DA8420ED1CD6822F0800263
:1020500042EA05124D6923F4406343EA85038D6922
:1020600022F0400243EA850343608461496881634A
:10207000026230BD0000014030B5026A22F4807275
:102080000262036A4268C46923F4007324F0730592
:102090000C682C438D6843EA05230C4DA8420ED1F1
:1020A000CD6823F4006343EA05234D6922F44052CE
:1020B00042EA05128D6923F4806342EA0512426008
:1020C000C4614968C163036230BD00000000014083
:1020D00030B5026A22F480520262046A4268C3691F
:1020E0000D6823F4E64343EA05238D6824F4005485
:1020F00044EA0534064DA84204D14D6922F48042D9
:1021000042EA85124260C36149680164046230BDDD
:102110000000014010B5036A046A24F0010404625F
:10212000846924F0F00444EA021423F00A020A430A
:102130008461026210BD10B5036A23F010030362CC
:102140008369046A23F4704343EA023224F0A00353
:1021500043EA01118261016210BD10B5806B00215C
:10216000C185C184FFF70DFA10BD01680C3151E83B
:10217000002F22F4907241E80023002BF5D1016872
:10218000143151E8002F22F0010241E80023002B16
:10219000F5D1016B012909D101680C3151E8002FFB
:1021A00022F0100241E80023002BF5D1202180F815
:1021B0003E1000210163704708B590F83E102229B7
:1021C00001D0022008BD82684FF480539A4201D1A9
:1021D000016921B1816A9A421BD04AB10AE00268C2
:1021E000816A5268C2F308020A80816A891C08E089
:1021F000026972B10268526802F07F020A70816A55
:10220000491C8162C18D491E0904090CC18503D096
:1022100019E002685268F1E70168CA6822F02002FA
:10222000CA600168CA6822F48072CA6001684A699B
:1022300022F001024A61202180F83E10016B012941
:1022400003D0FFF7C1FB002008BD00210163016836
:102250000C3151E8002F22F0100241E80023002B3E
:10226000F5D101680A68D20602D50A68496800916A
:10227000818DFFF785F9E6E770B5044600680169CE
:10228000E26821F44051114301612169A068E269CB
:1022900008436169114308432168CA6849F20C6325
:1022A0009A430243CA6020684169A26921F44071DF
:1022B0001143416131492068884202D03049884247
:1022C00002D1FEF703FD01E0FEF7F0FCE269002316
:1022D000192164253226B2F5004F626828D0A0FB90
:1022E0000101930F9200FDF773FF0146B0FBF5F07B
:1022F0006FF01802504301EB800006EB0010B0FBBA
:10230000F5F000F0F002B1FBF5F002EB0012B1FBCA
:10231000F5F06FF01803584301EB800006EB001056
:10232000B0FBF5F000F00F0021681044886070BD2C
:10233000A0FB010192185B41FDF74AFF0146B0FB8B
:10234000F5F00201B1FBF5F06FF01803584301EB13
:10235000800006EBC000B0FBF5F000F0F80002EBE7
:102360004002B1FBF5F0584301EB800006EBC000E2
:10237000B0FBF5F000F00700D6E7000000100140C8
:10238000001401402DE9F041984617460E460446D8
:10239000069D27E0681C25D02DB1FEF74DFBA0EB74
:1023A0000800A8421ED920680C3050E8001F21F414
:1023B000D07140E80012002AF5D12068143050E8AE
:1023C000001F21F0010140E80012002AF5D1202071
:1023D00084F83D0084F83E00002084F83C0003208F
:1023E000BDE8F0812068006836EA000004D00020D3
:1023F000B842CFD00020F3E70120F9E70148FFF70A
:10240000C1B80000F8000020FEE700000FB4054B43
:1024100010B503A9044A029800F0EAF810BC5DF870
:1024200014FB0000592D0008100000200907090EB8
:10243000002804DB00F1E02080F80014704700F071
:102440000F0000F1E02080F8141D704702E008C87A
:10245000121F08C1002AFAD170477047002001E01E
:1024600001C1121F002AFBD1704700002DE9FF5F58
:1024700082B00021DDE90430020DDDF840B00343F5
:1024800018D044F61050A2F2FF32424315141198AE
:1024900001281FD0A5EB0B00401C5FEA000A4FF09B
:1024A00000064E4FDFF83891B046504615D5CAF1B8
:1024B000000413E0119801244AA3012801D16FEA16
:1024C0000B010298119AC0E90031C0E9024206B03E
:1024D000BDE8F09FCBF10000DFE704460021404A51
:1024E000491842EB0450CDE9001012E0E00707D094
:1024F00032463B4640464946FDF79CFF80468946AA
:1025000032463B4610461946FDF794FF06460F46F5
:102510006410002CEAD1DDE90401DDE90023BAF101
:10252000000F06DAFDF786FF42464B46FDF782FFB5
:1025300005E0FDF7F1FF42464B46FDF7EDFF04468F
:102540000E460022284BFEF76FF803D84FF0FF30FD
:10255000014607E00022254B20463146FDF7C3FE29
:10256000FEF749F8102409E0002C0ADB0A220023B8
:10257000FDF72EFE039B30321A55641E50EA01020D
:10258000F2D1641C039AC4F111031444119A012A74
:1025900003D0012208430DD10AE0084304D00020F3
:1025A0004FF0110B119072E7A3EB0B056D1E0DE0C0
:1025B0005B4504DD4FF0000205F1010504E003DA9C
:1025C0004FF00002A5F10105002AECD00298119904
:1025D000C0E90231C0E9004579E70000000014407D
:1025E0000000F03F300000000000F0430000E03F3A
:1025F0002DE9FF4F95B09B468946064600250FE220
:10260000252877D100242746F84A0121059400E0C7
:10261000044316F8013F203B01FA03F01042F7D1C2
:1026200030782A2811D06FF02F033078A0F13002D3
:10263000092A16D8059A44F0020402EB820203EB41
:1026400042021044761C0590EFE759F8042B0592DE
:10265000002A03DA504244F40054059044F0020486
:10266000761C30782E2816D116F8010F44F0040499
:102670002A280DD06FF02F023078A0F13003092BFB
:1026800009D807EB870302EB4303C718761CF3E76F
:1026900059F8047B761C30786C280FD006DC4C2867
:1026A00017D068280DD06A2814D104E0742810D0FF
:1026B0007A280FD10DE044F400140AE044F48014A9
:1026C00001E044F440147278824202D104F580148F
:1026D000761C761C307866280BD013DC582877D00F
:1026E00009DC002875D04528F6D04628F4D04728C4
:1026F0001AD19DE118E0632835D0642879D0652887
:1027000012D195E1702873D008DC6728F1D06928D0
:102710006FD06E280DD06F2806D1B5E073282CD06D
:10272000752875D0782874D05A46179990476D1C33
:1027300075E1C4F30250022809D003280DD0D9F85E
:10274000001004280DD00D6009F1040967E1D9F8E3
:102750000010EA17C1E90052F6E7D9F800100D8021
:10276000F2E70D70F0E719F8041B8DF80010002057
:102770008DF80100EA46012003E059F804AB4FF060
:10278000FF3061074FF0000102D40DE008F10101B4
:102790008846B9420FDA8045F8DB1AF8081000299C
:1027A000F4D108E008F1010188468142FADB1AF809
:1027B00008100029F6D105985B46A0EB08072146D2
:1027C0003846179A00F094FA284400EB080507E011
:1027D0004DE029E10DE01AF8010B5A461799904790
:1027E000B8F10108F7D25B4621463846179A13E143
:1027F00042E00A220092C4F302524FF0000A022A79
:1028000008D059F804CB032A4FEAEC710AD00DE046
:1028100029E02AE009F1070121F00702F2E802C1EC
:10282000914609E00FFA8CFC4FEAEC71042A03D1BF
:102830004FFA8CFC4FEAEC71002907DA0A460021B6
:10284000DCF1000C61EB02012D2202E0220504D52F
:102850002B228DF80420012203E0E20701D0202280
:10286000F7E7904659E00A2102E010220DE010211E
:102870004FF0000A00910BE010224FF0000A44F0E4
:1028800004040827009203E008224FF0000A009297
:10289000C4F30252022A05D059F804CB0021032ABE
:1028A00008D009E009F1070121F00702F2E802C1AE
:1028B000914605E01FFA8CFC042A01D10CF0FF0CB4
:1028C0004FF00008220728D5702806D0009B83F01F
:1028D000100353EA0A0305D00EE040228DF80420CD
:1028E000012208E05CEA010206D030228DF80420C3
:1028F0008DF8050002229046009B83F0080353EAFE
:102900000A030AD15CEA010201D1620705D530222F
:102910008DF804204FF001087F1E582804D034A001
:1029200003900EA802900DE036A0F9E753466046EA
:10293000009AFDF74DFC84460398825C0298401E85
:10294000029002705CEA0100F0D1029806A9081A10
:1029500000F1200A600702D524F4803400E001274A
:10296000574502DDA7EB0A0000E0002000EB0A015A
:10297000009005984144401A0590E00306D45B4658
:102980002146179A059800F0B3F90544002706E0A0
:1029900001A85A46C05D179990476D1C7F1C47459A
:1029A000F6DBE0030CD55B462146179A059800F04C
:1029B0009FF9054404E030205A46179990476D1C52
:1029C0000099481E00900029F5DC08E00298029961
:1029D0005A460078491C0291179990476D1CBAF12C
:1029E0000001AAF1010AF1DC65E1000009280100FB
:1029F0003031323334353637383961626364656675
:102A00000000000030313233343536373839414236
:102A1000434445460000000000F058F90544761C88
:102A2000307800287FF4ECAD19B02846BDE8F08F6F
:102A3000620700D4062709F1070222F0070CFCE820
:102A40000223E14603F000485FEA080C02D00FF2CF
:102A5000702C0DE05FEA045C02D50FF2682C07E0F1
:102A60005FEAC47C02D00FF2602C01E0AFF2700C80
:102A70004FF0FF3823F00043CDF850C065280CD04C
:102A800006DC452809D046281DD047283DD13DE029
:102A9000662818D067287ED138E00021112F01DB8D
:102AA000112000E0781CCDE9000106A90EA8FFF76F
:102AB000DDFCDDE90F010E9A03910021009207F180
:102AC000010A04914DE04FF000400097CDE901105C
:102AD00006A90EA8FFF7CAFCDDE90F0203920E9BC0
:102AE00011990022DDF80CA00093049211B9791C11
:102AF00000EB010AB7EB0A0004D4C0F1FF3007F184
:102B0000010A0490AAEB0700019044E0012F00DACB
:102B100001270021112F01DD112000E03846CDE909
:102B2000000106A90EA8FFF7A1FCDDE90F010E9A2E
:102B30000391002104910092BA4621070CD4039915
:102B4000514500DA8A46BAF1010F05DD009AAAF173
:102B50000101515C302908D0B84202DA10F1040FAB
:102B600006DA0121CDE9011015E0AAF10101E9E73A
:102B7000002805DC049901440491AAEB000102E05D
:102B8000411C514500DD8A460499401A401C0190C1
:102B90004FF000400290200704D40198504501DB1B
:102BA000CDF8048000208DF84F0002980DF14F07FA
:102BB000B0F1004F25D02B200E9002984FF0020864
:102BC00000280CDA404202902D200E9007E00A21E6
:102BD0000298FDF753FB3031029007F8011DB8F160
:102BE0000001A8F10108F2DC02980028EFD1791E5B
:102BF0000E980870307800F0200040F0450007F88B
:102C0000020D12A8C01B00F107081498007800B14B
:102C1000012000EB0A01019801EBE07105984144A5
:102C2000401A401E0590E00306D45B462146179AE1
:102C3000059800F05DF805441498007818B15A46DC
:102C4000179990476D1CE00324D55B462146179ADF
:102C5000059800F04DF805441CE00498002807DBB7
:102C6000DDE90301884203DD0098405C179901E02B
:102C7000179930205A469047049805F10105401CE9
:102C800004900198401E019004D12E205A461799B5
:102C900090476D1CBAF10001AAF1010ADDDC05E0E4
:102CA00017F8010B5A46179990476D1CB8F10001AF
:102CB000A8F10108F4DC5B462146179A0598ABE6BB
:102CC0002D0000002B000000200000002DE9F04145
:102CD000044600251E461746880404D405E03946FC
:102CE0002020B0476D1C641EF9D52846BDE8F08150
:102CF0002DE9F041044600251E469046C80301D543
:102D0000302700E02027880404D505E041463846F6
:102D1000B0476D1C641EF9D52846BDE8F08100005F
:102D200010B503464FF0FF300A4C0FE013F8012BAB
:102D300080EA02600022002802DA84EA400000E013
:102D40004000521C082AF6DB491EC9B20029EDD109
:102D500010BD0000B71DC10438B504468DF8000051
:102D60000223012269460248FEF730FE204638BDA4
:102D7000B400002086B0FDF76DFEFFF77BF8FEF78C
:102D800073FFFEF7D5FFFFF737F8FEF7ABFFFFF74E
:102D90004FF86846FEF72AFF0120FEF701FF642284
:102DA00001216846FEF76EFE0D4D4FF400544FF4BE
:102DB0007A7621462846FDF731FE3046FDF72CFD98
:102DC00001216846FEF7A0FE0598FDF744FA41ECA4
:102DD000100B04A053EC102BFFF718FBE9E70000E1
:102DE0000008024025660D0A0000000000000000F7
:102DF00000000000010203040607080900000000AB
:102E000001020304242E000800000020140000002A
:102E10004C240008382E0008140000202C05000067
:102E20005C24000801000000100000000000000009
:082E30000024F4000000000082
:040000050800019955
:00000001FF
